:100000000C942A000C940B010C940B010C940B0122
:100010000C940B010C940B010C940B010C940B0130
:100020000C940B010C940B010C940B010C940B0120
:100030000C940B010C940B010C940B010C940B0110
:100040000C940B010C940B010C940B010C940B0100
:100050000C940B0111241FBECFE5D8E0DEBFCDBF4D
:0C0060000E94C2000C943400F894FFCF02
:10006C0081B3876081BB81B3806F81BB91982FEF87
:10007C0080E792E0215080409040E1F700C0000002
:10008C000E94070182E00E94AA008CE00E94AA0054
:10009C0086E00E94AA002FEF81EE94E02150804070
:0A00AC009040E1F700C00000089545
:1000B600CF93DF93CDB7DEB72B970FB6F894DEBF9D
:1000C6000FBECDBF4AE0BE016F5F7F4F0E94F300B7
:1000D600CE0101960E94E4002B960FB6F894DEBF7F
:0A00E6000FBECDBFDF91CF9108954A
:1000F000BB27FB015527AA27880F991FAA1FA41702
:1001000010F0A41B83955051B9F7A05DAA3308F0F5
:10011000A95DA193009779F7B111B1931192CB0129
:040120000C94D40067
:10012400CF93C82F909A82B38F709C2F907F892B86
:1001340082BB0E94FE0082B3282F2F7030E1C39F40
:10014400C0011124822B82BB0E94FE00CF9108952E
:10015400CF93C82F909882B38F709C2F907F892B58
:1001640082BB0E94FE0082B3282F2F7030E1C39F10
:10017400C0011124822B82BB0E94FE00CF910895FE
:100184000E9436000E94360084EF91E00E945B00DA
:100194002FEF81EE94E0215080409040E1F700C0C1
:0401A4000000F0CF98
:1001A800DC01FC01672F71917723E1F7329704C0D6
:1001B8007C916D9370836291AE17BF07C8F3089561
:1001C800CF93DF93EC018881882331F021960E9438
:0E01D800920089918111FBCFDF91CF910895A4
:1001E600BB274A3031F4992322F4BDE290958195DC
:0601F6009F4F0C947900FC
:1001FC00929A8FE19EE40197F1F700C0000092986B
:02020C00089553
:08020E0081E00E94AA0008959E
:040216000C94000044
:00000001FF
