:100000000C942D000C948E000C948E000C948E0099
:100010000C948E000C948E000C948E000C948E0028
:100020000C948E000C948E000C948E000C948E0018
:100030000C948E000C948E000C948E000C948E0008
:100040000C948E000C948E000C948E000C948E00F8
:100050000C948E0000600061800011241FBECFE56B
:10006000D8E0DEBFCDBFE4E5F0E040E017C0B591D9
:10007000A59135912591059107FD0CC0959185912C
:10008000EF01F92FE82F05900D92A217B307D9F7CA
:10009000FE0104C01D92A217B307E1F7E935F4078A
:0E00A00031F70E9478000C945500F894FFCFC1
:1000AE00CF93DF93C82FD62F84EA86BF0E94880095
:1000BE0088E080936000C3B9C4E8C6BFC6BF0E9483
:1000CE00880088E180936000D3B9C6BFC6BF0E9486
:1000DE00880088E28093600084E986BFDF91CF912B
:0200EE00089573
:1000F00087E00E94800069E086E00E945700FFCF01
:1001000009989FEF90B992B1880F982B92B90895F2
:0C01100006B607FEFDCF81B1887F089580
:04011C000C9400003F
:00000001FF
