:100000000C9430000C9483030C9483030C948303AE
:100010000C9483030C9483030C9483030C94830348
:100020000C9483030C9483030C9483030C945A0064
:100030000C9483030C942E010C9483030C9483037F
:100040000C9483030C9483030C9483030C94830318
:100050000C948303006000A100072A00A100A38084
:1000600011241FBECFE5D8E0DEBFCDBFE4E5F0E050
:1000700040E017C0B591A59135912591059107FDF7
:100080000CC095918591EF01F92FE82F05900D9205
:10009000A217B307D9F7FE0104C01D92A217B30738
:1000A000E1F7E036F40731F70E942E020C94580075
:0400B000F894FFCFF2
:1000B4001F920F920FB60F921124CF92DF92EF92FC
:1000C400FF922F933F934F935F936F937F938F93FD
:1000D4009F93AF93BF93EF93FF938091A10090916F
:1000E400A2000196813321E0920729F09093A200A7
:1000F4008093A10032C01092A2001092A1000E942D
:100104008D030E947A030E947D03BC01990F880B22
:10011400990B0E94800120E030E44CE950E40E94F5
:1001240076030E944C036B017C0188EBC8168BE0BC
:10013400D8063CF00E9487038CE690E00E94F60209
:1001440006C00E94890380E690E00E94F602C60180
:100154000E944D028DE00E947203FF91EF91BF91C6
:10016400AF919F918F917F916F915F914F913F914B
:100174002F91FF90EF90DF90CF900F900FBE0F90D4
:040184001F9018951B
:100188000FC00E945A0338F00E94610320F09523A3
:1001980011F00C9468030C94800311240C945403FC
:1001A8000E94EA0170F3959FC1F3950F50E0551F27
:1001B800629FF001729FBB27F00DB11D639FAA27B4
:1001C800F00DB11DAA1F649F6627B00DA11D661F03
:1001D800829F2227B00DA11D621F739FB00DA11D24
:1001E800621F839FA00D611D221F749F3327A00DDE
:1001F800611D231F849F600D211D822F762F6A2F7A
:1002080011249F5750409AF0F1F088234AF0EE0FDE
:10021800FF1FBB1F661F771F881F91505040A9F70B
:100228009E3F510580F00C9468030C9454035F3F83
:10023800E4F3983ED4F3869577956795B795F79547
:10024800E7959F5FC1F7FE2B880F911D96958795BF
:0402580097F9089575
:10025C001F920F920FB60F9211242F933F934F932F
:10026C005F936F937F938F939F93AF93BF93CF9332
:10027C00EF93FF93CCB1C13449F480E090E00E943D
:10028C00110387E990E00E94F60216C0C23449F4CB
:10029C0080E090E00E94050382E890E00E94F60264
:1002AC0015C0C33449F481E090E00E9411038DE83D
:1002BC0090E00E94F6020AC0C43441F481E090E060
:1002CC000E94050387E790E00E94F602FF91EF91F0
:1002DC00CF91BF91AF919F918F917F916F915F91D2
:1002EC004F913F912F910F900FBE0F901F9018952B
:1002FC00E89409C097FB3EF49095809570956195B4
:10030C007F4F8F4F9F4F9923A9F0F92F96E9BB2769
:10031C009395F695879577956795B795F111F8CFE5
:10032C00FAF4BB0F11F460FF1BC06F5F7F4F8F4F50
:10033C009F4F16C0882311F096E911C0772321F046
:10034C009EE8872F762F05C0662371F096E8862FDE
:10035C0070E060E02AF09A95660F771F881FDAF735
:0A036C00880F9695879597F908957C
:100376000E94F20188F09F5798F0B92F9927B7513C
:10038600B0F0E1F0660F771F881F991F1AF0BA9533
:10039600C9F714C0B13091F00E945303B1E008953B
:1003A6000C945303672F782F8827B85F39F0B93F2D
:1003B600CCF3869577956795B395D9F73EF49095E6
:0E03C6008095709561957F4F8F4F9F4F0895E2
:1003D40057FD9058440F551F59F05F3F71F04795F2
:1003E400880F97FB991F61F09F3F79F087950895D7
:1003F400121613061406551FF2CF4695F1DF08C0F6
:10040400161617061806991FF1CF86957105610512
:0404140008940895AB
:10041800A1E21A2EAA1BBB1BFD010DC0AA1FBB1F00
:10042800EE1FFF1FA217B307E407F50720F0A21B72
:10043800B30BE40BF50B661F771F881F991F1A94DF
:1004480069F760957095809590959B01AC01BD0109
:04045800CF01089533
:10045C000E9485030E946E0321E041E067E082E088
:10046C000E946A0241E060E085E00E94D60280E8CA
:10047C0095E20E94A1020E9493032FEF87EA91E676
:0E048C00215080409040E1F700C00000F6CF04
:10049A00CF93DF93CDB7DEB72B970FB6F894DEBFB5
:1004AA000FBECDBF4AE0BE016F5F7F4F0E941C03A3
:1004BA00CE0101960E94F6022B960FB6F894DEBF83
:0A04CA000FBECDBFDF91CF91089562
:1004D4001F93CF93DF93182F862FD42FC22F0E9400
:1004E4002703812F0E9437038D2F0E94B4020E949C
:1004F4008B03C13019F40E94910303C00E948F033F
:0A0504007894DF91CF911F910895C4
:10050E00BB27FB015527AA27880F991FAA1FA417DF
:10051E0010F0A41B83955051B9F7A05DAA3308F0D3
:10052E00A95DA193009779F7B111B1931192CB0107
:04053E000C94E60231
:100542009C018AB188698AB9032E000C440B550BB1
:1005520060E472E48FE090E00E940C0221503109C5
:0605620029B930BD089527
:10056800813041F018F0833041F0089587B18F73DE
:1005780087B908953F983E9A089587B1806C87B9E6
:020588000895D4
:10058A00092E0394000C11F4882352F0BB0F40F497
:10059A00BF2B11F460FF04C06F5F7F4F8F4F9F4FD7
:0205AA000895B2
:1005AC00CF93DF93C82F862FD42F0E9445038D2F16
:1005BC000E942F038C2F0E943E03DF91CF91089550
:1005CC00DC01FC01672F71917723E1F7329704C0AE
:1005DC007C916D9370836291AE17BF07C8F3089539
:1005EC00CF93DF93EC018881882331F021960E9410
:0E05FC00720389918111FBCFDF91CF91089599
:10060A009BB321E030E002C0220F331F8A95E2F744
:08061A00209529232BBB089554
:100622009BB321E030E002C0220F331F8A95E2F72C
:06063200292B2BBB0895EB
:10063800BB274A3031F4992322F4BDE29095819585
:060648009F4F0C94880294
:10064E0096B1987F96B996B18770982B96B9089502
:10065E0099B79B7F99BF99B78370982B99BF0895CF
:0E066E0097B1907E97B997B1892B87B90895FF
:0E067C0093B7987F93BF93B7892B83BF0895E0
:0E068A0093B7977B93BF93B7892B83BF0895D7
:0E0698000E94BB016894B1110C9454030895A4
:0E06A600E894BB2766277727CB0197F90895C4
:0E06B40000240A941616170618060906089563
:0E06C20000240A941216130614060506089565
:0C06D00097F99F6780E870E060E00895F3
:0806DC008AB383608ABB089514
:0806E4005D9BFECF8CB9089567
:0806EC000E94C4000C94C50239
:0606F400349BFECF0895C7
:0606FA0084B195B10895E2
:060700009FEF80EC08955C
:040706000C9400004F
:04070A00B89A0895FC
:04070E00C09A0895F0
:04071200C0980895EE
:04071600379A089571
:04071A00369A08956E
:04071E00339A08956D
:04072200339808956B
:040726007894089526
:0C072A004D4F544F52204F4646200D000A
:0B0736004D4F544F52204F4E200D003D
:0B0741004C454431204F4646200D007F
:0B074C004C454430204F4646200D0075
:0A0757004C454431204F4E200D00A8
:0A0761004C454430204F4E200D009F
:00000001FF
