:100000000C942A000C94AD000C94AD000C94AD003F
:100010000C94AD000C94AD000C94AD000C94AD00AC
:100020000C94AD000C94AD000C94AD000C94AD009C
:100030000C94AD000C94AD000C94AD000C94AD008C
:100040000C94AD000C94AD000C94AD000C94AD007C
:100050000C94AD0011241FBECFE5D8E0DEBFCDBFAC
:0C0060000E9436000C943400F894FFCF8E
:10006C000E94A8000E94AF000E94B50087E090E0BB
:10007C000E9496002FEF89E698E121508040904035
:10008C00E1F700C0000087E090E00E9483002FEFB2
:10009C0089E698E1215080409040E1F700C00000D3
:1000AC000E94B1002FEF89E698E1215080409040EA
:1000BC00E1F700C000000E94B3002FEF89E698E141
:1000CC00215080409040E1F700C000000E94B70032
:1000DC002FEF89E698E1215080409040E1F700C075
:1000EC0000000E94B9002FEF89E698E12150804072
:0A00FC009040E1F700C00000B9CF0A
:100106008330910511F49398089545B321E030E0CA
:10011600B90102C0660F771F8A95E2F7CB01809579
:06012600842385BB08954F
:10012C008330910511F4939A089545B321E030E0A2
:10013C00B90102C0660F771F8A95E2F7CB01842BB9
:04014C0085BB0895D2
:0A01500084B3846884BB8B9A089581
:04015A000C94000001
:04015E00D39A089593
:04016200DB9A089587
:04016600DB98089585
:04016A00D29A089588
:04016E00DA9A08957C
:04017200DA9808957A
:00000001FF
