:100000000C942A000C9499020C9499020C94990275
:100010000C9499020C9499020C9499020C949902F4
:100020000C9499020C9499020C9499020C949902E4
:100030000C9499020C9499020C9499020C949902D4
:100040000C9499020C9499020C9499020C949902C4
:100050000C94990211241FBECFE5D8E0DEBFCDBFBE
:0C0060000E940C010C943400F894FFCFB7
:10006C000FC00E94740238F00E947B0220F095238E
:10007C0011F00C9482020C94960211240C946E02D2
:10008C000E945C0170F3959FC1F3950F50E0551FD2
:10009C00629FF001729FBB27F00DB11D639FAA27D1
:1000AC00F00DB11DAA1F649F6627B00DA11D661F20
:1000BC00829F2227B00DA11D621F739FB00DA11D41
:1000CC00621F839FA00D611D221F749F3327A00DFB
:1000DC00611D231F849F600D211D822F762F6A2F97
:1000EC0011249F5750409AF0F1F088234AF0EE0FFC
:1000FC00FF1FBB1F661F771F881F91505040A9F729
:10010C009E3F510580F00C9482020C946E025F3F6E
:10011C00E4F3983ED4F3869577956795B795F79564
:10012C00E7959F5FC1F7FE2B880F911D96958795DC
:04013C0097F9089592
:10014000E89409C097FB3EF4909580957095619571
:100150007F4F8F4F9F4F9923A9F0F92F96E9BB2727
:100160009395F695879577956795B795F111F8CFA3
:10017000FAF4BB0F11F460FF1BC06F5F7F4F8F4F0E
:100180009F4F16C0882311F096E911C0772321F004
:100190009EE8872F762F05C0662371F096E8862F9C
:1001A00070E060E02AF09A95660F771F881FDAF7F3
:0A01B000880F9695879597F908953A
:1001BA000E94640188F09F5798F0B92F9927B75188
:1001CA00B0F0E1F0660F771F881F991F1AF0BA95F1
:1001DA00C9F714C0B13091F00E946D02B1E00895E0
:1001EA000C946D02672F782F8827B85F39F0B93FD2
:1001FA00CCF3869577956795B395D9F73EF49095A4
:0E020A008095709561957F4F8F4F9F4F08959F
:100218000E94370121E041E067E080E00E947E0112
:100228000E949D020E9490020E9488020E949302EE
:10023800BC01990F880B990B0E94A2002BEF3FE39A
:100248004CE950E40E948C020E946602CB010E9495
:100258009B012FEF89E698E1215080409040E1F71B
:0602680000C00000DDCF24
:10026E0087B38E6087BB8AB3806F8ABBC2982FEF2D
:10027E0080E792E0215080409040E1F700C00000FE
:10028E000E94880282E00E94EA018CE00E94EA014C
:10029E0086E00E94EA012FEF81EE94E0215080402B
:0A02AE009040E1F700C00000089541
:1002B80057FD9058440F551F59F05F3F71F047950F
:1002C800880F97FB991F61F09F3F79F087950895F4
:1002D800121613061406551FF2CF4695F1DF08C013
:1002E800161617061806991FF1CF86957105610530
:0402F80008940895C9
:1002FC001F93CF93DF93182F862FD42FC22F0E94DA
:10030C005702812F0E945F028D2F0E9402020E94D1
:10031C009B02C13019F40E94A10203C00E949F02EB
:0A032C007894DF91CF911F9108959E
:10033600CF93DF93CDB7DEB72B970FB6F894DEBF1A
:100346000FBECDBF4AE0BE016F5F7F4F0E944302E2
:10035600CE0101960E9434022B960FB6F894DEBFAA
:0A0366000FBECDBFDF91CF910895C7
:10037000BB27FB015527AA27880F991FAA1FA4177F
:1003800010F0A41B83955051B9F7A05DAA3308F073
:10039000A95DA193009779F7B111B1931192CB01A7
:0403A0000C94240293
:1003A400CF93C82FC19A8BB38F709C2F907F892BCA
:1003B4008BBB0E944E028BB3282F2F7030E1C39F5A
:1003C400C0011124822B8BBB0E944E02CF91089551
:1003D400CF93C82FC1988BB38F709C2F907F892B9C
:1003E4008BBB0E944E028BB3282F2F7030E1C39F2A
:1003F400C0011124822B8BBB0E944E02CF91089521
:10040400813041F018F0833041F0089587B18F7343
:1004140087B908953F983E9A089587B1806C87B94B
:02042400089539
:10042600092E0394000C11F4882352F0BB0F40F4FC
:10043600BF2B11F460FF04C06F5F7F4F8F4F9F4F3C
:02044600089517
:10044800DC01FC01672F71917723E1F7329704C033
:100458007C916D9370836291AE17BF07C8F30895BE
:10046800CF93DF93EC018881882331F021960E9495
:0E047800D20189918111FBCFDF91CF910895C0
:10048600BB274A3031F4992322F4BDE29095819539
:060496009F4F0C94B90118
:10049C00C39A8FE19EE40197F1F700C00000C39866
:0204AC000895B1
:1004AE0096B1987F96B996B18770982B96B90895A4
:0E04BE0097B1907E97B997B1892B87B90895B1
:0E04CC000E94DD006894B1110C946E02089538
:0E04DA00E894BB2766277727CB0197F9089592
:0E04E80000240A941616170618060906089531
:0E04F60000240A941216130614060506089533
:0C05040097F99F6780E870E060E00895C0
:0805100081E00E94EA01089558
:080518000E9436000C9413024E
:06052000349BFECF08959C
:0605260084B195B10895B7
:06052C009FEF80EC089532
:040532000C94000025
:04053600379A089553
:04053A00369A089550
:04053E00339A08954F
:04054200339808954D
:00000001FF
