:100000000C942D000C947F000C947F000C947F00C6
:100010000C947F000C947F000C947F000C947F0064
:100020000C947F000C947F000C947F000C947F0054
:100030000C947F000C947F000C947F000C947F0044
:100040000C947F000C947F000C947F000C947F0034
:100050000C947F0000600061800011241FBECFE57A
:10006000D8E0DEBFCDBFE4E5F0E040E017C0B591D9
:10007000A59135912591059107FD0CC0959185912C
:10008000EF01F92FE82F05900D92A217B307D9F7CA
:10009000FE0104C01D92A217B307E1F7E935F4078A
:0E00A00031F70E9468000C945500F894FFCFD1
:1000AE00CF93C4ECC6BF0E94790080E680936000B7
:1000BE00C6BF0E94790080E88093600083B1CF9123
:0200CE00089593
:1000D0008FEF8ABB83E00E9471000E9457008BBBA8
:0200E000FFCF50
:1000E20091B19C7F91B994E690B9880F82B9089535
:0C00F20006B607FEFDCF81B1887F08959F
:0400FE000C9400005E
:00000001FF
