:100000000C942A000C9473000C9473000C947300ED
:100010000C9473000C9473000C9473000C94730094
:100020000C9473000C9473000C9473000C94730084
:100030000C9473000C9473000C9473000C94730074
:100040000C9473000C9473000C9473000C94730064
:100050000C94730011241FBECFE5D8E0DEBFCDBFE6
:10006000E4E5F0E040E017C0B591A5913591259108
:10007000059107FD0CC095918591EF01F92FE82FAF
:1000800005900D92A217B307D9F7FE0104C01D9287
:10009000A217B307E1F7E435F40731F70E945400E3
:0800A0000C945200F894FFCF0C
:1000A80083E00E94610081E40E946F008FE39FE17A
:0A00B8000197F1F700C00000F6CF39
:1000C20097B3906B97BB0E946B0080E18DB980E47F
:0400D2008DB9089547
:0800D6009DB1892B8DB908953D
:0800DE008FB9779BFECF089556
:0400E6000C94000076
:00000001FF
