:100000000C942A000C9435010C9435010C943501A4
:100010000C9435010C9435010C9435010C94350188
:100020000C9435010C9435010C9435010C94350178
:100030000C9435010C9435010C9435010C94350168
:100040000C9435010C9435010C9435010C94350158
:100050000C94350111241FBECFE5D8E0DEBFCDBF23
:0C0060000E942D010C943400F894FFCF96
:10006C0082B3876082BB8FE39CE90197F1F700C0F4
:10007C00000080B3807F09F4DFC0849B48C082B34A
:10008C00887F82BB8FE39CE90197F1F700C00000E9
:10009C00909A8FE39CE90197F1F700C00000849BD4
:1000AC000CC082B3876082BB8FE39CE90197F1F7A8
:1000BC0000C0000083E090E0089582B3887F82BB8B
:1000CC008FE39CE90197F1F700C00000919A8FE350
:1000DC009CE90197F1F700C00000849B0CC082B32F
:1000EC00876082BB8FE39CE90197F1F700C00000A9
:1000FC0082E090E0089582B3876082BB8FE39CE935
:10010C000197F1F700C0000081E090E00895859B15
:10011C0048C082B3887F82BB8FE39CE90197F1F7DB
:10012C0000C00000909A8FE39CE90197F1F700C0A2
:10013C000000859B0CC082B3876082BB8FE39CE977
:10014C000197F1F700C0000086E090E0089582B3BB
:10015C00887F82BB8FE39CE90197F1F700C0000018
:10016C00919A8FE39CE90197F1F700C00000859B01
:10017C000CC082B3876082BB8FE39CE90197F1F7D7
:10018C0000C0000085E090E0089582B3876082BBD8
:10019C008FE39CE90197F1F700C0000084E090E048
:1001AC000895869B48C082B3887F82BB8FE39CE90D
:1001BC000197F1F700C00000909A8FE39CE901973A
:1001CC00F1F700C00000869B0CC082B3876082BB35
:1001DC008FE39CE90197F1F700C0000089E090E003
:1001EC00089582B3887F82BB8FE39CE90197F1F776
:1001FC0000C00000919A8FE39CE90197F1F700C0D1
:10020C000000869B0CC082B3876082BB8FE39CE9A5
:10021C000197F1F700C0000088E090E0089582B3E8
:10022C00876082BB8FE39CE90197F1F700C0000067
:0A023C0087E090E0089580B3089574
:1002460081B38F7081BB81B3876081BB82B38760C6
:0402560082BB0895CA
:10025A008FEF8ABB0E9423010E9436008BBBFCCF22
:04026A000C940000F0
:00000001FF
